{
  "address": "0xe7f1725E7734CE288F8367e1Bb143E90bb3F0512",
  "abi": [
    {
      "anonymous": false,
      "inputs": [
        {
          "indexed": true,
          "internalType": "uint256",
          "name": "newValue",
          "type": "uint256"
        }
      ],
      "name": "ValueChanged",
      "type": "event"
    },
    {
      "inputs": [],
      "name": "retrieve",
      "outputs": [
        {
          "internalType": "uint256",
          "name": "",
          "type": "uint256"
        }
      ],
      "stateMutability": "view",
      "type": "function"
    },
    {
      "inputs": [
        {
          "internalType": "uint256",
          "name": "newValue",
          "type": "uint256"
        }
      ],
      "name": "store",
      "outputs": [],
      "stateMutability": "nonpayable",
      "type": "function"
    },
    {
      "inputs": [],
      "name": "version",
      "outputs": [
        {
          "internalType": "uint256",
          "name": "",
          "type": "uint256"
        }
      ],
      "stateMutability": "pure",
      "type": "function"
    }
  ],
  "transactionHash": "0x272464173cb8e303fc16dc49a71b353a60662cc87dafc5554106b5ec75bccd61",
  "args": [],
  "numDeployments": 1,
  "solcInputHash": "179b214e24c8840e36b2b1000e5a5f12",
  "bytecode": "0x608060405234801561001057600080fd5b506101af806100206000396000f3fe608060405234801561001057600080fd5b50600436106100415760003560e01c80632e64cec11461004657806354fd4d50146100645780636057361d14610082575b600080fd5b61004e61009e565b60405161005b9190610100565b60405180910390f35b61006c6100a7565b6040516100799190610100565b60405180910390f35b61009c6004803603810190610097919061014c565b6100b0565b005b60008054905090565b60006001905090565b80600081905550807f93fe6d397c74fdf1402a8b72e47b68512f0510d7b98a4bc4cbdf6ac7108b3c5960405160405180910390a250565b6000819050919050565b6100fa816100e7565b82525050565b600060208201905061011560008301846100f1565b92915050565b600080fd5b610129816100e7565b811461013457600080fd5b50565b60008135905061014681610120565b92915050565b6000602082840312156101625761016161011b565b5b600061017084828501610137565b9150509291505056fea2646970667358221220e6d8db414958637a918482b2802ea7e3219b39b6fd89906f0c4f31ab9af8128664736f6c63430008090033",
  "devdoc": {
    "kind": "dev",
    "methods": {},
    "version": 1
  },
  "userdoc": {
    "kind": "user",
    "methods": {},
    "version": 1
  },
  "storageLayout": {
    "storage": [
      {
        "astId": 3,
        "contract": "contracts/Box.sol:Box",
        "label": "value",
        "offset": 0,
        "slot": "0",
        "type": "t_uint256"
      }
    ],
    "types": {
      "t_uint256": {
        "encoding": "inplace",
        "label": "uint256",
        "numberOfBytes": "32"
      }
    }
  }
}