{
  "address": "0xCf7Ed3AccA5a467e9e704C703E8D87F634fB0Fc9",
  "abi": [
    {
      "anonymous": false,
      "inputs": [
        {
          "indexed": true,
          "internalType": "uint256",
          "name": "newValue",
          "type": "uint256"
        }
      ],
      "name": "ValueChanged",
      "type": "event"
    },
    {
      "inputs": [],
      "name": "increment",
      "outputs": [],
      "stateMutability": "nonpayable",
      "type": "function"
    },
    {
      "inputs": [],
      "name": "retrieve",
      "outputs": [
        {
          "internalType": "uint256",
          "name": "",
          "type": "uint256"
        }
      ],
      "stateMutability": "view",
      "type": "function"
    },
    {
      "inputs": [
        {
          "internalType": "uint256",
          "name": "newValue",
          "type": "uint256"
        }
      ],
      "name": "store",
      "outputs": [],
      "stateMutability": "nonpayable",
      "type": "function"
    },
    {
      "inputs": [],
      "name": "version",
      "outputs": [
        {
          "internalType": "uint256",
          "name": "",
          "type": "uint256"
        }
      ],
      "stateMutability": "pure",
      "type": "function"
    }
  ],
  "transactionHash": "0x0664afaf9ce559da3ddb74055cfc739287a5bcceb7a9f69b490d1ec9260ef3c3",
  "args": [],
  "numDeployments": 1,
  "solcInputHash": "179b214e24c8840e36b2b1000e5a5f12",
  "bytecode": "0x608060405234801561001057600080fd5b5061028f806100206000396000f3fe608060405234801561001057600080fd5b506004361061004c5760003560e01c80632e64cec11461005157806354fd4d501461006f5780636057361d1461008d578063d09de08a146100a9575b600080fd5b6100596100b3565b604051610066919061015b565b60405180910390f35b6100776100bc565b604051610084919061015b565b60405180910390f35b6100a760048036038101906100a291906101a7565b6100c5565b005b6100b16100fc565b005b60008054905090565b60006002905090565b80600081905550807f93fe6d397c74fdf1402a8b72e47b68512f0510d7b98a4bc4cbdf6ac7108b3c5960405160405180910390a250565b600160005461010b9190610203565b6000819055506000547f93fe6d397c74fdf1402a8b72e47b68512f0510d7b98a4bc4cbdf6ac7108b3c5960405160405180910390a2565b6000819050919050565b61015581610142565b82525050565b6000602082019050610170600083018461014c565b92915050565b600080fd5b61018481610142565b811461018f57600080fd5b50565b6000813590506101a18161017b565b92915050565b6000602082840312156101bd576101bc610176565b5b60006101cb84828501610192565b91505092915050565b7f4e487b7100000000000000000000000000000000000000000000000000000000600052601160045260246000fd5b600061020e82610142565b915061021983610142565b9250827fffffffffffffffffffffffffffffffffffffffffffffffffffffffffffffffff0382111561024e5761024d6101d4565b5b82820190509291505056fea2646970667358221220e0a3e859ae84549bdff81b5383a8fc5a51fc26cfeb45d9614846ed53c27a54d064736f6c63430008090033",
  "devdoc": {
    "kind": "dev",
    "methods": {},
    "version": 1
  },
  "userdoc": {
    "kind": "user",
    "methods": {},
    "version": 1
  },
  "storageLayout": {
    "storage": [
      {
        "astId": 42,
        "contract": "contracts/BoxV2.sol:BoxV2",
        "label": "value",
        "offset": 0,
        "slot": "0",
        "type": "t_uint256"
      }
    ],
    "types": {
      "t_uint256": {
        "encoding": "inplace",
        "label": "uint256",
        "numberOfBytes": "32"
      }
    }
  }
}